:020000021000EC
:1090000000600020759301005D9301005F930100F3
:10901000619301006393010065930100000000006B
:109020000000000000000000000000006793010045
:1090300069930100000000006B9301006D93010033
:10904000A1B101006F930100A5B701006F9301006A
:109050006F93010000000000E9B50100FDBC0100B4
:1090600019C4010029C4010039C401006F93010033
:109070006F9301006F9301006F9301006F930100E4
:109080006F930100719F01006F9301006F930100C6
:109090000DA001006F93010071ED01006F930100BD
:1090A0006F9301006F9301000000000000000000BA
:1090B0006F9301006F9301000000000000000000AA
:1090C00000000000000000000000000000000000A0
:1090D0000000000000000000000000000000000090
:1090E0000000000000000000000000000000000080
:1090F0000000000000000000000000000000000070
:10910000000000000000000000000000000000005F
:10911000000000000000000000000000000000004F
:10912000000000000000000000000000000000003F
:10913000000000000000000000000000000000002F
:10914000000000000000000000000000000000001F
:10915000000000000000000000000000000000000F
:1091600000000000000000000000000000000000FF
:1091700000000000000000000000000000000000EF
:1091800000000000000000000000000000000000DF
:1091900000000000000000000000000000000000CF
:1091A00000000000000000000000000000000000BF
:1091B00000000000000000000000000000000000AF
:1091C000000000000000000000000000000000009F
:1091D000000000000000000000000000000000008F
:1091E000000000000000000000000000000000007F
:1091F000000000000000000000000000000000006F
:10920000354936480A1A02D0072291438D4634491F
:1092100034480A1A06D00722914381F309880222B2
:1092200082F3148830483149314A00F044F831481B
:109230003149324A00F03FF831483249324A00F0B1
:109240003AF832483249334A00F035F83248334967
:10925000334A00F030F833483349344A00F02BF8F1
:1092600033483449344A00F026F83448344900225F
:1092700000F02CF833483449002200F027F8334836
:109280003349091A082902DB002202604160314A91
:1092900090471F481F49884205D00268043003B434
:1092A000904703BCF7E700208646EC4600200021EB
:1092B000294A9047FEE7884207D0521A05D0037822
:1092C00001300B700131013AF9D17047884202D068
:1092D00002700130FAE7704700600020005800205B
:1092E0000060002000600020D00402000025002063
:1092F0005C250020C0930100C0930100B4F301007D
:10930000D00402000025002000250020B8F4010050
:10931000B8F40100B8F40100B8F40100B8F4010099
:10932000B8F40100B8F40100B8F40100D004020060
:109330002C0502005C2500205C2500205C25002017
:109340009035002090350020903500209035002089
:10935000903D00208B93010025D50100FEE7FEE73C
:10936000FEE7FEE7FEE7FEE7FEE7FEE7FEE7FEE7D5
:10937000704700BF0C4880470C484FF007018843F6
:1093800085460B488047FFF73BBF0A480A490B4A0E
:10939000884207D0521A05D0037801300B70013192
:1093A000013AF9D17047000071930100006000207C
:1093B00001AE0100B8F401000025002000250020C6
:1093C0007047000007B5044B0093044A402300F0A7
:1093D00032F803B05DF804FBE19301005D25002045
:1093E0002DE9F84389461446B2B10F4B0F4E0325C1
:1093F000002743F00108224609EB0701002004F092
:1094000069FA0744241A48B933782BB14FF47A40EB
:10941000C047013D02D13570BDE8F88301233370A8
:10942000002CE8D1F8E700BFB8F401005C2500206B
:10943000704704F083BAF0B595B01C46164608464E
:109440000D4601F005FC1A9B0D93CDE9086400243C
:109450002346082205A928460A948DF82C400C942E
:1094600001F013FC079B0293069B03939DF81430B5
:109470008DF8114003F00302012A1DD1BDF81440FC
:10948000059EC3F3C203C4F383148DF81030A20009
:1094900008230EA9284601F0F8FBC6F3952608AB71
:1094A0000093224602AB0EA9304600F06DFB284621
:1094B00001F0D2FB15B0F0BD022AF8D1BDF816407C
:1094C000C3F3C203A4098DF810300827082C2646E0
:1094D00028BF08263B4632460EA9284601F0D5FB98
:1094E000A41B08AB02AA31460EA8374400F0B0FB1B
:1094F000002CEBD1DBE7000008B5FFF79AFF042151
:10950000034800F0AFFA034B01225A7108BD00BFB7
:10951000A8F4010000250020037813F0040216D0FF
:1095200003F00303012B03D0022B09D00120704765
:109530000A6800880232C0F3831002440A60F5E72B
:109540000B684288023303EB92130B60EEE7104680
:10955000704700002DE9F04F87B000230446851CBA
:109560000DF107000F4690468DF8073001F03AF8EC
:10957000454806683E60D0E90132134401339B1B25
:10958000824600F21C4600F5836900F21447AB42A4
:109590001BD30022B8F1000F70D0052363F307023C
:1095A00064F38912DAF80010DAF808309DF8070041
:1095B0000B4003330D444AF82320CAF8005001F051
:1095C00035F8012007B0BDE8F08F0121304601F0E9
:1095D0008AF8484601F09DF8384601F09AF8DAF822
:1095E0000400DAF808B0029000EA0B0003300AEB3E
:1095F000800002A9FFF790FF029B50BB0BEA030219
:109600000AEB820203F1020CD2680392013303EAEF
:109610000B0B0AEB8B0B02F00302012ACDF808C0FA
:10962000DBF80C1022D0022A16D08346384601F00F
:1096300073F810B1029BCAF804305946304601F065
:1096400052F8DAE901231344DAF8002001339B1AB7
:109650009DE70BEA0300C9E7BDF80E309B09033311
:109660004FEA114B0CEB93030293DFE7BDF80C308C
:10967000C3F383134FEA114B6344F5E7062363F307
:10968000070264F39F528DE7702600200B4B0C48B5
:10969000FF2210B59A600022C3F81824C3E9002203
:1096A000C3F8142483F8202401F08BFA044610B97F
:1096B000044801F019FB204610BD00BF70260020B1
:1096C0001CF40100DCF4010030B50A4C71B10A4A07
:1096D0000A49121BD20800239A4201D1002030BD52
:1096E00031F82350854202D00133F5E7034654F8A0
:1096F0003300F4E730F40100A8F401000025002055
:10970000094B013903EBC000032909D8DFE801F058
:109710000A020406042070470079704740797047B8
:10972000002070470220704730F40100034BD3E95A
:109730000030C31A58425841704700BF70260020BD
:109740002DE9F04387B0FFF7F1FF0646002840F00F
:10975000FB807E4DC5F81804BFF34F8F6868AC6876
:1097600002902040033005EB800002A9FFF7D4FEF1
:10977000029B18B1D5F81824002A5FD004EA03022E
:10978000991C013305EB8202234005EB8303D26869
:10979000DB68049302F00303022B0392029162D16F
:1097A000BDF80E306A484FEA9318B8F1500FC14621
:1097B00028BF4FF0500969F38F1309F10801ADF884
:1097C0000E3001F016FA0746002800F0A88001F0DC
:1097D0003FFA03A900230822384601F04CFA029907
:1097E00024EA01060136B600B14535D95FFA89F998
:1097F0007EB3F6B2A9EB0609214003315FFA89F482
:10980000B146544E05EB810108234A46384601F023
:1098100032FA36B109F1080322463146384601F0E2
:109820002AFA029B08F1030803EB98030293D5F888
:109830001834002B4BD1D5F810445BE02A689A42CB
:1098400004D86A60304607B0BDE8F08304EA03003C
:1098500088E740493446D7E72140033108234A4688
:1098600005EB8101DAE7012B59D1BDF80C303848FE
:10987000C3F38311062928BF062161F3891302313E
:109880008900ADF80C3001F0B4F90746002846D045
:1098900001F0DEF90023082203A9384601F0EBF9B4
:1098A0000026BDF80C20C2F38312B300964203F1E8
:1098B0000803BCD202994A1C21400331029205EBF5
:1098C00081010422384601F0D6F90136E9E738462D
:1098D00001F0C2F9FFF72AFF80F00100C6B2B1E73C
:1098E000E3685B7923B1236839461B6820469847B3
:1098F000E3681C68002CF3D1384601F0ADF90DF196
:1099000007008DF8074000F06DFED5F818340BB94C
:10991000029B6B609DF8070000F088FEDAE7D5F83F
:10992000104454B90C4B0D480D49C01AC00800042E
:1099300040F0020000F06EF8CCE7236820469B68F8
:109940009847E3681C68ECE700267BE77026002058
:109950001CF401007C26002030F4010068F40100B2
:10996000E8F401002DE9F74F284C80460F46924657
:1099700001A9012218469B46D4F80890FFF7EAFD9A
:1099800080B3019D0026A91C5E4506EB010233D180
:1099900000211F4800F07CFE80F310006A1C02EAE0
:1099A000090204EB8202000405EA0903033340EADA
:1099B0001840D06014F8232068F3C50204F823206F
:1099C00034F8232066F3891224F8232054F8232046
:1099D00067F39F2244F8232002F0F80242F00102CC
:1099E00004F8232094F820341BB1FFF7A9FE0028C7
:1099F000FBD103B0BDE8F08F09EA020204EB82025A
:109A00005AF82630D3600136BEE700BF702600202A
:109A10008C2A002000231A46FFF7A4BF07B50123B4
:109A2000019201AAFFF79EFF03B05DF804FB07B5A2
:109A3000CDE9002302236A46FFF794FF03B05DF8E7
:109A400004FB7FB5CDE90123089B0393099B049395
:109A50000A9B059301AA0523FFF784FF07B05DF871
:109A600004FB000030B50F49D1F810240023144640
:109A70003CB9C468237152B9C1F810042260184679
:109A800030BDE46825799D4206D02468F0E7D268AD
:109A9000116821601060F2E701330A2BE7D14FF023
:109AA000FF33ECE770260020094A38B50123D2F8CD
:109AB000104482F820341D4604B938BDE3685D7156
:109AC000236820465B689847E3681C68F4E700BF9A
:109AD00070260020037A052B10B50C460FD0437A70
:109AE00023B1084A0849204600F079FE074920467C
:109AF00000F075FE2046BDE8104000F065BE002A6B
:109B0000F8D0F3E733F5010038F5010058F501000E
:109B1000C38873B504460D4633B1144A0092144904
:109B2000144A284600F05BFE217A05291CD0637A8E
:109B30004BB1A088FFF7E4FD0F4B104953F82020EC
:109B4000284600F04CFE227A0D4BA08853F8226084
:109B50000021FFF7B9FD0B4903463246284602B003
:109B6000BDE8704000F03BBE02B070BD33F50100AF
:109B700043F501003BF5010000F5010038F5010057
:109B800068F501005BF501002DE9F04385B01F4643
:109B90000C9D002306460C46904695F80C902B73BE
:109BA00029463846FFF7B4FFB8F1060F09D8DFE8B9
:109BB00008F00412181F283340003146284600F0F0
:109BC0000EFE002229463846FFF784FF85F80C90E8
:109BD00005B0BDE8F08322683146284600F0FFFD5D
:109BE000EFE7D4E900233146284600F0F8FDE8E726
:109BF000A36800933146D4E90023284600F0EFFD26
:109C0000DFE7E3680193A36800933146D4E90023BA
:109C1000284600F0E4FDD4E723690293E36801934A
:109C2000A36800933146D4E90023284600F0D7FD0D
:109C3000C7E76369039323690293E3680193A36809
:109C400000933146D4E90023284600F0C8FDB8E768
:109C500008292DE9F84F80460E4617461C4636D88F
:109C6000002593F80C901D7319461046FFF750FF1E
:109C7000DFF87CA0DFF87CB0AE422AD918F80520C6
:109C80005946204600F0ABFD0135082DF4D11649A8
:109C9000DFF864B0204600F0A2FD0025AE421DD9D9
:109CA00018F805A0504605F031FA002814BF5246B6
:109CB0002E225946204600F092FD0135082DEDD1A7
:109CC000012221463846FFF705FF84F80C90BDE8D5
:109CD000F88F5146204600F082FDD5E70349204623
:109CE00000F07DFDE9E700BF2EF501002CF5010035
:109CF0002AF5010024F5010030F5010082B00123AE
:109D00008DF807309DF80730114B1860596044F208
:109D1000010188429A6012D044F20201884206D1C1
:109D2000DA60DA6812889A61DA685268DA6172B6C3
:109D30009DF80730002BFBD162B602B070471A6164
:109D40001A6992685A611A6912689A611A69ECE78D
:109D50002C2B002000B583B002900091019244F2B8
:109D6000010071466A4600F003F803B000BD000030
:109D70002DE9FF4106460F46154672B6FFF794FEE1
:109D8000FFF7DEFC0028FBD1234B244CE41AE40847
:109D900041F2010324049E4244F0010428D007D874
:109DA000012E14D03A461E492046FFF737FE12E036
:109DB00044F201039E421DD044F202039E42F1D1BF
:109DC0002B886A6817492046FFF731FE03E01649E1
:109DD0002046FFF71FFE154B1B68DB0700D500BEB2
:109DE0002A463946304604B0BDE8F041FFF786BF49
:109DF0000F49EDE7D5F80880404600F0B3FF2B6827
:109E0000029701936B6800930A4903464246204635
:109E1000FFF717FE0849DBE730F4010068F40100A2
:109E200060F601000CF60100CDF50100F0ED00E058
:109E3000EAF5010026F601004CF6010049B152B1E5
:109E4000531E1A4007D1826001608380C2601046B1
:109E500070470E2070470920704710B58468C268AB
:109E60008388121B934208D3C26813400268D154FE
:109E7000C3680133C360002010BD0420FCE7826882
:109E8000C3689A420AD08268838813400268D35C10
:109E90000B70836801338360002070470520704792
:109EA000094A537891780133DBB2994208BF002305
:109EB000117899421FBF03705078182303FB0020CC
:109EC00014BF0430002070474C2B002073B50546AA
:109ED00000240DF107000E468DF8074000F082FBCC
:109EE0000DF10600FFF7DCFF90B10670094B9DF8FD
:109EF000062045605A709DF8070000F097FB24B9D2
:109F0000054B4FF48012C3F80021204602B070BD0B
:109F10000424F0E74C2B002000E100E0024B4FF45A
:109F20003C6043F00103184778F6010038B50C4B4C
:109F30000C4C4FF40032C3F8802001254FF48033DD
:109F4000C4F84833C4F808336560FFF7E7FF064BF1
:109F5000A56000241C60FFF7E1FF044B1C7038BDB6
:109F600000E100E000100140682C0020592C002086
:109F7000F8B51F4B1F491B680025C1F84051C1F8B7
:109F80004451C1F84851C1F84C51C1F80051C1F8D1
:109F900004514BB3D1F8044517490968641A24F0F9
:109FA0007F442F461A68A24209D8A41A15441A7C85
:109FB000DE691AB11F74D3E905209047AEB90F4A84
:109FC0000F4B11781B788B4205D10133DBB2022B8A
:109FD00008BF0023137012780A4B43F822500A4B33
:109FE0004FF48012C3F80021F8BD3346DAE700BF12
:109FF0006C2C002000100140682C0020652C0020F3
:10A00000642C00205C2C002000E100E02DE9F04FE2
:10A01000A04AA14913780978A04D994285B03CD057
:10A020000133DBB2022B08BF002313709C49127866
:10A030009C4B0F6853F822003B1823F07F4300220B
:10A040000B602B6816461446944613B942B12B6038
:10A0500006E0196881420ED902B12B60091A196015
:10A060004FF001082B68DFF844A201930027BEB926
:10A07000DFF840B266E0401A0C44D968C3F800C06B
:10A08000D3F81CE031B13A1922F07F42C3E9012133
:10A09000DE611E4601227346D7E70026B046E1E79F
:10A0A0003446F6697E4A63681268DFF80CC2A0681D
:10A0B000991A21F07F41614500F2A5800144216099
:10A0C000012222742A680023C4E90133E361002AD3
:10A0D00040F0A2802C60CAE75A1C9BF80210D2B252
:10A0E00091428BF8002004BF00228BF80020182238
:10A0F00002FB03B31A799C68022A1CD0032A12D0EF
:10A10000012A1FD1207CE8B9D3E90312A2605A6961
:10A11000E2609A69644BA2611B78002B0CBF0B466E
:10A1200003466360BEE700222B681146002B66D110
:10A1300042B12B6006E029680A468946002A59D1B7
:10A14000002323749BF800309BF801209A42C3D16E
:10A150002B682FB9019A9A4202D1B8F1000F43D06F
:10A16000002B73D0D3F800A0504D4D4BD5F804759B
:10A170001C68DFF848813E1B98F8003026F07F46C7
:10A1800003369BB94FF48033C5F84433C5F8043324
:10A19000474B4FF400324FF00109C3F880211A6099
:10A1A000C5F80090FFF7BAFE88F80090B2452CBFC2
:10A1B0005444A41924F07F44C5F84045D5F804352B
:10A1C000DB1B23F07F43E41B033324F07F44A342D3
:10A1D0000AD9D5F80435C5F84035FFF79FFE344B52
:10A1E0004FF40032C3F800212F4B00221A7005B043
:10A1F000BDE8F08F94422CD09146D2699EE7197445
:10A200000122DB6992E7D31A23F07F43834234BFF4
:10A21000C31A0023236053E721681368994213D8B7
:10A22000591A1160E26155E7091AD8691A4638B11E
:10A23000034618688842F7D3401A18601846134638
:10A240002160E061DC6112E71346F2E7FFF76EFE82
:10A25000CAE74C4511D1CB692B6073B9DFF840E0F8
:10A260000120CDE90212CAF80800CEF800300E4BEA
:10A270001870FFF753FEDDE902121368D269C9F8BE
:10A280001C2012B11068034413602B68994218BF58
:10A29000012755E7642C0020652C00206C2C002041
:10A2A000682C00205C2C0020582C0020001001405D
:10A2B00000E100E04C2B0020FEFF7F00592C002025
:10A2C00008B5FFF733FE104B00200B2218809A7060
:10A2D0000E4B18600E4B18700E4B18700E4B4FF44F
:10A2E0008012C021C3F8802183F814131A6002F190
:10A2F0008042A2F56F22C2F8080583F81113074BBC
:10A30000D2F804251A6008BD4C2B00206C2C0020CC
:10A31000642C0020652C002000E100E0682C002067
:10A32000074B9B784BB132B128B10368187C20B938
:10A3300059745A617047072070470820704700BF62
:10A340004C2B00202DE9F7431E4FBB7805460E46E7
:10A350009046A3B398B304292FD943697BB3437CB8
:10A360000024012B0DF107000CBF8946A1468DF892
:10A37000074000F037F90DF10600FFF791FDD0B16D
:10A3800001230370104B4560D3F80435C0E90498ED
:10A39000C0E902369DF806307B709DF8070000F09A
:10A3A00045F924B9094B4FF48012C3F80021204627
:10A3B00003B0BDE8F0830424EFE70724F7E708249F
:10A3C000F5E700BF4C2B00200010014000E100E049
:10A3D000064A92783AB130B1426922B10022027441
:10A3E0000221FFF773BD0820704700BF4C2B0020EF
:10A3F00037B50578012D05D0002D36D0022D26D099
:10A4000003B030BD4368204C19782046FFF725FD86
:10A4100090B18DF8005001901C4B68461B6898471E
:10A42000A168E368A2885B1A9A420CD301221849FA
:10A43000184801F045FBE3E7A268E3689A42EFD0D1
:10A440008DF80000E8E7144B01221A70D8E7C368C2
:10A450000F4910488DF800500122019301F030FBA4
:10A460000A4B68461B689847CAE70C490C48FFF737
:10A4700006FD28B901220949064801F0D1FABFE7D3
:10A4800003238DF80030EBE7742C0020702C0020A3
:10A49000982C00200C250020842C0020992C0020D2
:10A4A000882C0020F0B51F46244B89B006461A6060
:10A4B0000C46002940D08A8821480968FFF7BEFC75
:10A4C000002837D1A289A1681E48FFF7B7FC0028F1
:10A4D00030D11D4D0FCD6C460FC495E80F0084E8B8
:10A4E0000F0073690693337C184A19488DF81C7065
:10A4F000003318BF01238DF81430737C002B14BF78
:10A500000E2300238DF81530F3680293B36803938C
:10A510003368019369467368009300F0E3FD48B91E
:10A520000C4B18703368013304D001220A490B48E0
:10A5300001F0C6FA09B0F0BD0720FBE7702C00203F
:10A54000742C0020882C002080F60100F1A301006B
:10A5500008250020842C0020982C00200C250020A9
:10A5600070B50B4C01460B482678FFF788FC054672
:10A570005EB10023012208490848237001F0A0FAC7
:10A5800018B1074ACE21FFF7E5FB284670BD00BF92
:10A59000842C0020742C0020982C00200C250020F6
:10A5A000A0F6010010B501460B48FFF756FC044623
:10A5B00078B90A4801F078FA58B909490648FFF70E
:10A5C0005EFC30B9012206490448BDE8104001F0A4
:10A5D00027BA204610BD00BF882C00200C25002083
:10A5E000992C002070B5EFF3108672B60C4A94686F
:10A5F00001239CB993600B4B0B4DD3F8801029407D
:10A600001160C3F88050D3F8841051604FF0FF32CE
:10A61000C3F88420047006B962B670BD0370FAE70F
:10A620009C2C002000E100E0FC06FFBD084B9A686E
:10A6300010B55AB150B9EFF3108172B6054A1C68D3
:10A6400014605C685460986001B962B610BD00BFC8
:10A650009C2C002000E100E001F01F024B090121C9
:10A66000914000EB830000F01DB801F01F030122B0
:10A670009A404B0900EB8300D14300F029B84B0905
:10A6800001F01F0150F82300C84000F0010070479E
:10A6900050E8002F0B4640E8003C9CF0000FF7D13B
:10A6A0001046704750E8003F43EA010240E8002CA2
:10A6B0009CF0000FF6D11046704750E8002F02EAD8
:10A6C000010340E8003C9CF0000FF6D110467047B3
:10A6D00050E8003F03EA010240E8002C9CF0000F24
:10A6E000F6D11046704750E8003F03EB010240E806
:10A6F000002C9CF0000FF6D11046704750E8003F48
:10A70000A3EB010240E8002C9CF0000FF6D11046AC
:10A7100070470121FFF7C6BF0021FFF7CEBF10B57C
:10A7200090B1D0E9012301689B1ADBB20A60013BBA
:10A73000DBB2FF2B026802D10020107110BD11683E
:10A740004C1C14600B70F2E70E20F7E737B5054696
:10A7500000240DF107008DF80740FFF743FF2A683A
:10A760006B68116899420ED9481E106011F8014CAF
:10A77000EB68298A01FB0434AB6811791B1ADBB240
:10A78000994238BF13719DF80700FFF74FFF20462D
:10A7900003B030BD37B5054600230DF107000C4668
:10A7A0008DF80730FFF71EFF2A681368591C1160E7
:10A7B000E968641A298AB4FBF1F41C709DF807005B
:10A7C000FFF734FF03B030BD826810B504462AB1EC
:10A7D00043690168006998470023A36010BD0EB467
:10A7E00003B5039921B104AB01AA019300F06CF801
:10A7F00002B05DF804EB03B07047826830B40468BF
:10A80000551C8560A154D0E901329A4202D330BC74
:10A81000FFF7DABF30BC70472DE9F84F9946DDE904
:10A820000A431746824688460A460126BA420FD294
:10A830004E4538BF4E4613F0010B01D164B90024D8
:10A840000125B9F1010F1AD909F1FF397D43F8E764
:10A85000B2FBF7F20136E9E79B070ED5B9F1000F1D
:10A860000CBF30252025A642EAD2013C294650469D
:10A87000FFF7C3FF002CF6D1E1E72025F3E7B8FB93
:10A88000F5F39F42E2D9DFF83C90B8FBF5F3504670
:10A8900019F8031005FB1388FFF7AFFFB5FBF7F3BB
:10A8A000BD4207D2BBF1000F02D00CB1A64203D3C8
:10A8B000BDE8F88F1D46E8E720215046013CFFF730
:10A8C0009CFFF2E7E3F601002DE9F74F0546174636
:10A8D0008846002900F0318118F8011B49B92B7B0B
:10A8E000002B00F02A81284603B0BDE8F04FFFF7A7
:10A8F0006BBF252940F0C080002698F800302D2B32
:10A90000424608F1010823D0302B24D02B2B25D030
:10A9100000242A2B02F1010123D13B681A1D1B6878
:10A920003A601C440A4613782E2B26D101324FF090
:10A93000000A104610F8011BA1F1300CBCF1090F00
:10A940001DD80A2303FB0A13A3F1300A0246F0E7DD
:10A9500046F00106D1E746F00206CEE746F00406CF
:10A96000CBE711F8013CA3F130000928DBD80A221B
:10A9700002FB0434303C0A46CBE74FF0000A12F8E1
:10A98000011B01F0FB0068289046F8D069290ED021
:10A990004AD8582964D006D825296DD098F80030B7
:10A9A000002B99D19BE7632962D06429F6D13A68DC
:10A9B000D2F80090111D89EAE9723960A2EBE972C0
:10A9C0004FF0010B092A5BDCD34538BFD3462CB1CD
:10A9D000B9F1000F01DB710700D5013CB20702D5C8
:10A9E000BAF1000F04D0F30702D4002C4ED100249A
:10A9F000B9F1000F52DAC9F100092D212846FFF7FD
:10AA0000FCFE06F00302022A05D1BAF1000F02D1C2
:10AA1000002C47D10024CDE9004653460A2249467E
:10AA20002846FFF7F9FEB9E773294CD014D87029EE
:10AA3000B4D13B681A1D3A60302128461C68FFF7E4
:10AA4000DCFE78212846FFF7D8FE00220823CDE956
:10AA5000003221461022E3E775292BD078299DD1B9
:10AA600039680A1D3A60CDE900465346102228E0B5
:10AA70003B681A1D19783A602846FFF7BEFE8DE73D
:10AA80000A230BF1010BB2FBF3F29BE7A345AFD214
:10AA900020212846013CFFF7B0FEA6E77007B0D59D
:10AAA0002B21ABE7A345B6D230212846013CFFF766
:10AAB000A4FEADE73968CDE900460A1D3A60534669
:10AAC0000A220968ACE73B681A1D3A60F107D3F81F
:10AAD000009020D4B9F1000F25D0484604F038FC8E
:10AAE0000646B44200D9C4B909F1FF3920E028462E
:10AAF0000136FFF782FE19F806100029F7D1A642A9
:10AB0000BFF44CAF002C3FF449AF20212846013C54
:10AB1000FFF773FEF3E70026EDE720212846013C0E
:10AB2000FFF76BFEDDE74E46DBE72846FFF765FEE5
:10AB300019F8011F0029F8D130E703B0BDE8F08F04
:10AB40002DE9F047B0F806904479D2F800A09DF8BE
:10AB5000208009FB04F4043C06460AEB0300A042F3
:10AB60000F4688BFA4EB030A191DC2F800A0B1FB71
:10AB7000F9F509FB15114DB9A9EB0104544528BF9E
:10AB80005446BAF1000F04D1BDE8F0873668013DA4
:10AB9000F1E704317B1970182246B8F1000F0ED08E
:10ABA00001461846AAEB040A04F054FBD14525449B
:10ABB00036684C464FF0000128BF5446E1E719467D
:10ABC000F0E7FFF7ACBDF8B546790146721E0546C1
:10ABD000002393422D6803D30024A64202D8F8BD77
:10ABE0000133F6E70F682846FFF7D4FD01343946F4
:10ABF000F3E72DE9F843068ACD1C0746FFF7A6FDCB
:10AC0000043E35440446B5FBF6F5F0B14FF48073CD
:10AC1000EDB28380C680013D076081464FF0000899
:10AC2000A84512D23846FFF791FD064648B1637930
:10AC30000133637108F10108C9F80000076081461B
:10AC4000EEE72046FFF7BFFF34462046BDE8F88315
:10AC500001210430FFF747BD10B50121044604303F
:10AC6000FFF74CFD10F0FF0F04D12046BDE8104067
:10AC7000FFF7A9BF10BD1FB503920022009203AADF
:10AC8000FFF75EFF05B05DF804FB1FB503920122DC
:10AC9000009203AAFFF754FF05B05DF804FB41DF03
:10ACA00070470000064B10B500241C70054B1C605B
:10ACB000BFF35F8F0449054800F01FF8204610BD20
:10ACC000B02C0020B42C0020F4F60100A82C0020A9
:10ACD00008B504F033F818B1BDE80840FFF7DFBF4E
:10ACE00020BF40BF20BF08BD836800225A609A6021
:10ACF000C3E90422DA601A6070470B684A6843604F
:10AD0000934208BF0023016008BF43607047436857
:10AD100043B10268916852680B449342436004BF98
:10AD2000002343607047000010B50D49A1F59472EF
:10AD3000914201D800200FE08B1ADB1003EBD37394
:10AD40005B1002EBC30452F83330834205D802D2C1
:10AD500004F10802ECE7606810BD2146E8E700BF97
:10AD600044F8010008B5FFF7DFFF024B002808BFD9
:10AD7000184608BD09F70100034B187810B90122E5
:10AD80001A70704785207047B82C00200C4B1B7838
:10AD9000062B10D10B4B1B681A070CD10A4B1868F5
:10ADA00000F0F003302B08D000F0E000A0F14003E9
:10ADB000584258417047002070470120704700BF3B
:10ADC000E00F00F0E40F00F0E80F00F0094B1B78F3
:10ADD000062B0CD1084B1B681A0708D1074B1868C3
:10ADE00000F0F000A0F130035842584170470020B5
:10ADF000704700BFE00F00F0E40F00F0E80F00F034
:10AE000008B5FFF7C3FF28B1524B534A1B68C3F381
:10AE100004231360FFF7DAFF10B1504B504A1A6059
:10AE2000504B514A1B68C3F342331360FFF7CEFF08
:10AE300020B14E4AD36823F08073D3604FF0804333
:10AE40000022C3F80C21C3F81021C3F83825FFF7FE
:10AE5000BDFF10B1464B03221A60FFF7B7FF40B1A8
:10AE6000444B05221A6001229A6700229A603F2211
:10AE70005A604FF08052404BD2F80414C3F82015AA
:10AE8000D2F80814C3F82415D2F80C14C3F8281506
:10AE9000D2F81014C3F82C15D2F81414C3F83015D6
:10AEA000D2F81814C3F83415D2F81C14C3F840159E
:10AEB000D2F82014C3F84415D2F82414C3F8481566
:10AEC000D2F82814C3F84C15D2F82C14C3F8501536
:10AED000D2F83014C3F85415D2F83414C3F86015FE
:10AEE000D2F83814C3F86415D2F83C14C3F86815C6
:10AEF000D2F84014C3F86C15D2F84424C3F8702576
:10AF000003F54053FB22C3F81825FFF73FFF28B194
:10AF10001A4B1B4A1B6803F04F0313604FF080432A
:10AF2000D3F80024D20744BF6FF00102C3F8002415
:10AF3000144B1B68062B08D1134B1B68062B01BF53
:10AF4000124A136843F480631360114B114A1A606C
:10AF500008BD00BF240300104035014074C0074005
:10AF60000DF0ADBA440200103C050040F0ED00E0E9
:10AF7000A00500401056004000C0004058020010DC
:10AF8000E40E004030010010340100103C17004076
:10AF9000142500200090D00338B5074C051E04F19D
:10AFA000080318BF1C4623682BB11A6822605B682F
:10AFB00028469847F7E738BDC42C002020B9054B38
:10AFC00001225A70FFF7E8BF012802D1014A9070B0
:10AFD000F8E77047BC2C002020B9034B01225A70BF
:10AFE000FFF7DABF704700BFBC2C002038B50B4C10
:10AFF000237883B90A486360A3602361E36000F0AB
:10B00000A3F8054603F09AFE08B900F0A9F8012359
:10B010002370284638BD8525FBE700BFBC2C0020E7
:10B02000BDAF010037B50B4C00230DF107008DF8C3
:10B030000730FFF7D7FAE368013BE360E56815B92D
:10B0400000F0A2F8A5709DF80700FFF7EFFA03B033
:10B0500030BD00BFBC2C0020012813B509D018B1A9
:10B0600003281CD002B010BD0F4B0122C3F8802072
:10B07000F8E70E4C00230DF107008DF80730FFF7BD
:10B08000B1FA23780BB9FFF7B1FFE3689DF8070029
:10B090000133E3600123A370FFF7C8FAE2E700F091
:10B0A0005FF8FFF7BFFFDDE700E100E0BC2C002008
:10B0B0001FB503788DF8003043680193037A8DF84B
:10B0C0000830C3680393054A054B684653F821309E
:10B0D00052F82110984705B05DF804FBD02C0020F1
:10B0E000D42C0020F0B506460F4B16F8047B43F82D
:10B0F00027200E4B94460C460A6943F827200FCCB4
:10B1000089B06D460FC594E80F00BCF1000F85E8CB
:10B110000F00074A049708BF00226946304600F036
:10B12000B7FB09B0F0BD00BFD42C0020D02C00200C
:10B13000B1B0010000F18040002382B003600368D9
:10B140000193019B02B07047044A137923B901218E
:10B15000106091801846704785207047D82C0020D9
:10B16000084B1A68D20706D4C02283F800230122B4
:10B17000C3F880211A604FF080430122C3F81825DC
:10B18000704700BF00E100E0044B01221A604FF05D
:10B190008042D2F81834DB03FBD470470C00004027
:10B1A000124B1B6810B573B14FF48070FFF7C2FFEC
:10B1B0004FF080430122C3F808230D4B587910B992
:10B1C0005A711B6898470B4B1B6873B14FF4827020
:10B1D000FFF7B0FF4FF080430222C3F80823044B6F
:10B1E00001201B68BDE81040184710BD0001004059
:10B1F000D82C00200401004000F1804000F5C04040
:10B20000002382B0036003680193019B02B0704782
:10B21000800000F1A040D0F8003723F44033C0F89C
:10B220000037D0F8003743EA0141C0F800177047F3
:10B23000054B4FF0FF32072843F8202084BF1B182E
:10B2400083F84820704700BFE02C0020C208054961
:10B2500000F0070001238340885C20EA0300885443
:10B26000704700BF342D002010B5184C94F85830AA
:10B2700053BB04F130032021FF22013911F0FF01FB
:10B2800003F8012BF9D1C8B2FFF7D2FF01310C2925
:10B29000F9D1042200210E4804F005F80D4BC0221C
:10B2A00083F806234022C3F880214FF4BE701A6051
:10B2B000FFF7A2FF084B4FF00042C3F8042301231D
:10B2C00084F85830002010BD0820FCE7E02C002056
:10B2D000342D002000E100E000600040034B93F8B3
:10B2E0005800003018BF0120704700BFE02C00203C
:10B2F00030B52E4B1A1892F93040013453D18C7866
:10B30000002C4CD01C46002254F8045B013541D17E
:10B310001C1884F83020002443F82240920002F1E7
:10B32000804202F5C0420B78D2F810554C7825F4D3
:10B3300098151B04240525F4F85504F4801403F42F
:10B340004033C2F8105523430402D2F8105504F4D8
:10B35000F85423432B43C2F810354A780123012ABD
:10B360004FF0A04203FA00F30CBFC2F80835C2F850
:10B370000C3500F5E073032142F82310C2080C4994
:10B38000012300F0070003FA00F08B5C1843885497
:10B39000002003E00132082AB6D1042030BDFE238C
:10B3A00082F83030D9E70820F8E700BFE02C002011
:10B3B000342D002038B516490D18044695F8300094
:10B3C000072809D8FFF734FF95F93030114A03F503
:10B3D000A273002042F823000B19FF2201EBD401D5
:10B3E00083F8302091F85420012304F007018B40AA
:10B3F0001A420BD004F5E0724FF0A043022143F84B
:10B4000022102046BDE83840FFF720BF38BD00BFFE
:10B41000E02C002000600040012303FA00F04FF010
:10B42000A043C3F808057047012303FA00F04FF06A
:10B43000A043C3F80C0570474FF0A0410122D1F89A
:10B44000043502FA00F020EA03020340C1F808259F
:10B45000C1F80C3570470000074B184490F93030A4
:10B460009B0003F1804303F5C043D3F8102542F05D
:10B470000302C3F810257047E02C0020074B184446
:10B4800090F930309B0003F1804303F5C043D3F8BB
:10B49000102522F00302C3F810257047E02C00208D
:10B4A000054B184490F930000C308000C0B200F118
:10B4B000804000F5C0407047E02C0020054B184448
:10B4C00090F9300018308000C0B200F1804000F5E3
:10B4D000C0407047E02C00200A4B1844003190F91E
:10B4E00030304FEA830303F1804303F5C04318BFB4
:10B4F0000121D3F8102522F4801242EA0152C3F848
:10B5000010257047E02C00200E4B034493F93020A7
:10B51000072A02DD0021FFF77BBED3B2072B10D82C
:10B52000930003F1804303F5C043D3F8101521F0D5
:10B530000101C3F81015012303FA02F2024BC3F80C
:10B5400008237047E02C00200060004038B5164CFE
:10B550000546FFF7D9FF631993F93030DAB2072AAD
:10B560009FBF03F5A273114A002142F8231004EB98
:10B57000D50305F0070193F8542001238B401A42AC
:10B5800009D005F5E0734FF0A042022142F82310E4
:10B590002846FFF75BFE2C4494F83000FFF748FE86
:10B5A000FF2384F8303038BDE02C002000600040DC
:10B5B00038B50B4D002415F9013B9A1C0AD12046E1
:10B5C000FFF7F8FE0134202CF5D1064B002283F85A
:10B5D000582038BD002BF5DB2046FFF7B7FFF1E719
:10B5E000102D0020E02C00202DE9F04F85B0002424
:10B5F0005A4D01944FF48072012102F1804303F50A
:10B60000C04390B21B68012B06D1D5F804330B421E
:10B6100002D0FFF7F1FD0C430432B2F5907F4FEA00
:10B620004101EAD14E4B1B68012B0AD14FF4BE7089
:10B63000FFF7E2FD4FF0A04344F00044D3F810358B
:10B64000019314F0FF0F1AD0464F00250126344213
:10B6500010D0AB0003F1804303F5C043D3F81005CD
:10B66000D3F8101557F8253023B1C1F30141C0F3C9
:10B67000042098470135082D4FEA4606E7D1002CF3
:10B6800064DA00224FF0FF33CDE90223354D012764
:10B690004FF0000A344E54464FF0A04816F9012BE3
:10B6A000531C46D0D2B222F0C0094FEAD90104A8F7
:10B6B000084402F0070310F804CC07FA03F31CEA6D
:10B6C000030F36D005EB090C92099CF930C055F8F0
:10B6D0002CB0BBF1000F0AD1032A2AD10DF1080EBC
:10B6E0001EF801C04CEA030C0EF801C001E0032A69
:10B6F000F4D009F5E07110F80C0C58F8211018423C
:10B70000C1F3014105D0022913D1032A0BD11146FF
:10B7100004E003290DD1032A05D102214846FFF791
:10B7200077FD0134E4B2BBF1000F02D01146484668
:10B73000D8470AF1010ABAF1040FAFD134B14FF082
:10B74000A043019AD3F81035934202D105B0BDE869
:10B75000F08F0193029B03939AE700BF00600040C3
:10B760007C610040E02C0020302D0020002070473C
:10B770000023435082B043580193019B02B07047AD
:10B780001FB501238DF80030054B8DF8080001919D
:10B790006846D3E90012904705B05DF804FB00BF8E
:10B7A0003C2D00207FB5384AD2F82461002E49D0C4
:10B7B00010464FF49271FFF7DBFF02238DF8003043
:10B7C000D2F88034C2F880340393D2F83C358DF837
:10B7D00008302E4BDA6801920022C3E9062268463F
:10B7E000D3E900129047284AD2F8443173B14FF49C
:10B7F000A2711046FFF7BCFF244B996931B10021BB
:10B800009961D2F83C05D968FFF7BAFF1E4AD2F811
:10B810002031ABB14FF490711046FFF7A9FF1B4BDD
:10B82000596969B1D2F84C158DF808100022996851
:10B830008DF8002001915A616846D3E900129047C3
:10B8400004B070BDD2F81031002BCCD04FF4887109
:10B850001046FFF78DFF0D4BD2F83C0599698842E1
:10B86000C1D1DC69D96864B1D2F8005225F0200555
:10B87000C2F800521A699C61DA60DE61FFF780FF4E
:10B88000B1E79C61FAE700BF002000403C2D00209A
:10B890002DE9F8435E4B06799146242202FB0632DD
:10B8A000044692F820200D469846002A40F0AB80CE
:10B8B00058490068FFF75AFF0746002840F0A58066
:10B8C00029682368481C0BD04FF0A04001228A4011
:10B8D000C0F8082501F5E0724FF0030C40F822C0D3
:10B8E0006868421C1FBF00F5E0724FF0A04C4FF09B
:10B8F000000E4CF822E0AA6995F814C0C3F824257C
:10B900006A7DBCF1010F4CEA0202C3F86C25C3F852
:10B910000C15C3F814051DD1AA68511C1FBF02F5F0
:10B92000E0714FF0A0404FF0000C40F821C0E968F2
:10B93000481C0BD04FF0A04C01208840CCF80805E3
:10B9400001F5E0704FF0030E4CF820E0C3F8081545
:10B95000C3F810252423734308EB0302C2F80490B4
:10B960002A6948F80320B9F1000F3BD04FF48871E1
:10B9700020682D7FFFF7FCFE4FF490712068FFF7E1
:10B98000F7FE4FF492712068FFF7F2FE20684FF443
:10B99000A271FFF7EDFE22681F4BC2F80433120BB1
:10B9A00053B2002BA8BF03F160404FEA53134FEA94
:10B9B0004511BABF194802F00F0500F561404FEA82
:10B9C0008303C9B203F16043B4BF415580F800134B
:10B9D00003F5614302F01F02012101FA02F2C3F8EC
:10B9E00080211A6023680822C3F80025242303FB62
:10B9F00006830022C3E906225A61012283F820202F
:10BA00003846BDE8F8830827FAE71127F8E700BFB2
:10BA10003C2D0020A5B701001003020014ED00E04A
:10BA200001F06043B3F1005F2DE9F041074632D1E8
:10BA30001C4B0679242505FB063598466C6964BBCA
:10BA40006A61A96000684FF49071FFF791FE4FF4AE
:10BA5000AC713868FFF78CFE3B686A69A968C3F867
:10BA60004415C3F8482501229A606A68BAB9D3F828
:10BA70002011D3F8582149B9002AF8D00F202423E7
:10BA800003FB068600237361BDE8F081002A14BF22
:10BA90000F200020F3E71020F6E71120F4E72046FE
:10BAA000F2E700BF3C2D00200379044A242101FB6A
:10BAB00003235869003018BF012070473C2D002037
:10BAC000F8B501F06043B3F1005F04460F465FD163
:10BAD0000379304D242101FB0351486820B12168CE
:10BAE0004FF40476C1F80863242101FB03539E69D7
:10BAF00056B1D96900293AD020B123684FF40472B5
:10BB0000C3F80423112031E09A61DF60DE614FF455
:10BB100088712068FFF72CFE4FF4A2712068FFF7B0
:10BB200027FE2368C3F83475C3F838251EBB0122ED
:10BB30001A602179242202FB0152526812BBD3F809
:10BB40001001D3F84421D3F82441104302D1002C32
:10BB5000F5D00246242303FB015500239C4214BF69
:10BB6000032018469A42AB6118BF0F20F8BD1F6131
:10BB7000DA610126CBE7D3F8002242F02002C3F8B5
:10BB80000022D6E74FF40472C3F804230020EDE747
:10BB90001020EBE73C2D00202DE9F74F4FF0000976
:10BBA000154D164E07464FF0040AC8465FFA89FB4A
:10BBB00001240DF1070004FA0BF48DF80780FEF75D
:10BBC00011FD2C4208D0336814EA030201BF23435D
:10BBD000336087F800B092469DF80700FEF726FD17
:10BBE000BAF1000F03D0A54309F10109DED1504697
:10BBF00003B0BDE8F08F00BFFFFF0100602D002003
:10BC000037B501258540C5F31003ABB10B4B0024BC
:10BC1000C3F808550DF107008DF80740FEF7E2FC68
:10BC2000074A9DF80700136823EA05051560FEF72B
:10BC3000FDFC204603B030BD0720FBE700F00140CB
:10BC4000602D002010B5A1B19AB101238340C3F348
:10BC5000100484B10A4C246823420ED0C00000F1C5
:10BC6000804000F5F830C0F81015C0F81425002009
:10BC700010BD0E20FCE70720FAE70820F8E700BF18
:10BC8000602D0020012303FA00F0430C5B044BB944
:10BC900018B1064B1B68184206D0054BC3F80405C3
:10BCA000002070470720704708207047602D002053
:10BCB00000F00140012303FA00F0430C5B044BB990
:10BCC00018B1064B1B68184206D0054BC3F808058F
:10BCD000002070470720704708207047602D002023
:10BCE00000F0014000F1804000F5E040002382B008
:10BCF000036003680193019B02B07047F0B5534B9A
:10BD0000534C1B6885B0002B3DD04FF4827094F8E3
:10BD10002E20FFF7E7FF2AB394F82F3013BB4D4BCB
:10BD20001B68002B33D04FF48070FFF7DBFF94F8D3
:10BD30002D20638B91B28B424ED95B1A21899BB225
:10BD40006383CB1A616801EB4301434BC3F82C16A4
:10BD5000C3F830264FF48270FFF7C4FF3F4B012237
:10BD60001A6014E0636802932389ADF80C30E3682D
:10BD700000218DF8041023BB2374236801A8984781
:10BD8000002384F82F3094F82E30002BC7D1344B89
:10BD90001B685BB14FF48870FFF7A4FF0023237486
:10BDA00002238DF8043001A8236898472D4B1B68A7
:10BDB00013B34FF48A70FFF795FF0023237405B087
:10BDC000F0BD208B608363602081E160002AD4D1C4
:10BDD000214B01221A60D0E7BCD1E368012184F82D
:10BDE0002F103BB1002161831B49C1F82C36C1F8EB
:10BDF0003026AFE76383ADE766694FF00047012562
:10BE0000002EDCD0B6FA86F227FA02F34632920010
:10BE100026EA030602F1804303F5E0431B68002B8A
:10BE2000EED01046FFF75EFFA2F58C72D30882F0C9
:10BE30000402C2F380028DF808308DF804508DF8AA
:10BE40000920236801A89847DAE700BF0471004081
:10BE5000642D00200071004000700040047000401C
:10BE6000107100401471004038B51D4B044693F822
:10BE70002C0098BB1B4A19602178C2F8F015617834
:10BE8000C2F8F415E5781874012183F82C1083F8B2
:10BE90002D00586183F82F0083F82E506FF0004377
:10BEA000C2F808334FF48270FFF71CFF4FF4807024
:10BEB000FFF718FFA3780C485B01DBB280F807336B
:10BEC0008023C0F8803103600223C2F804330DB12F
:10BED000C2F80413C2F80015002038BD0820FCE7A2
:10BEE000642D00200070004000E100E02A4B1A7C25
:10BEF00070B502F0FF05002A4BD10A79012A9CBFD8
:10BF0000264CC4F8005500F10C0503EB45042479D8
:10BF100024B993F82D40013483F82D4003EB4503F9
:10BF2000CC790D7A8E781C715D714B7836021B01CD
:10BF300006F4E06603F0300333430E7806F00306A0
:10BF40003343CE78360306F480563343160406F4A2
:10BF5000E02633434E798979360506F480160906C2
:10BF6000334301F080710B430C4901EB00160001D3
:10BF700000F1804000F5E040012AC6F81835C0F80D
:10BF80001455C0F8104502D80123C1F8003500202F
:10BF900000E0112070BD00BF642D00200070004043
:10BFA000054B93F82E30002B14BF0020042000F125
:10BFB000804000F5E0407047642D0020264A274B62
:10BFC00070B505461220C2F808031C7C022C03D170
:10BFD000C2F80403112070BD187C01281DD1D86857
:10BFE00018B10223C2F80433F4E7DD60198393F833
:10BFF0002E3063B91A4A1368002BFCD04FF48070BE
:10C00000FFF770FE144BC3F82C56C3F83016124BD2
:10C010000222C3F804230020DDE7022093F82E401B
:10C02000C2F80403012600201E745D601981D860E7
:10C030003CB1598393F82D30C2F82C56C2F83036F3
:10C04000C9E7C2F82C564FF48070C2F83016FFF7DB
:10C0500049FE20461660BEE700700040642D0020B7
:10C060000071004008B50A4B197C01F0FF0269B964
:10C0700002214FF488701974FFF734FE054B10212C
:10C08000C3F804130121D960104608BD1120FCE754
:10C09000642D002000700040024B187C003018BF57
:10C0A00001207047642D0020F0B51B4F8BB207EBC9
:10C0B000001443EA0243C4F81C35184B40005C6985
:10C0C00000F1010C4FF0004611F5006F26FA0CF656
:10C0D0004FF0800505FA00F50BBFB44334435C61B3
:10C0E0005C610CBFC7F80853C7F8045340244FF0F5
:10C0F00000455969844025FA00F040F2FF75AA42D4
:10C10000054A0BBF81430143596159610CBFC2F815
:10C110000843C2F80443F0BD00700040642D0020C5
:10C12000124B1A7C10B5F2B900F10C0103EB41027D
:10C13000127922B193F82D20013A83F82D2003EBD8
:10C14000410300249C80030103F1804303F5E04395
:10C1500040F2FF72C3F814450549C3F81045FFF7D4
:10C16000A3FF204610BD1120FCE700BF642D002076
:10C1700000F8FFFF38B5134B6FF00042C3F80823F7
:10C18000114A8021C2F88010104A01211160104923
:10C1900042F21072086808B9013AFBD10D4D002433
:10C1A000C3F800452C7405EB44031B7F13B1E0B2C8
:10C1B000FFF7B6FF0134082CF5D1002385F82C30A9
:10C1C00038BD00BF0070004000E100E00870004092
:10C1D00014710040642D00202DE9F7430024064629
:10C1E0000F4600F5A0754FF48038A146A0002B68DB
:10C1F00000F5A07080B26BB1D6F8043308FA04F2EF
:10C200001A4207D0C5F800902B680193019BD7E92B
:10C21000003198470134042C05F10405E6D103B040
:10C22000BDE8F083F7B50579334C0C266E43A719AA
:10C230003B7A002B5DD1A2514A687A60467900684A
:10C240001F46DAB296424BD8020B53B2CE78002B7F
:10C25000A8BF03F16047D2B24FEA5313B8BF02F050
:10C260000F0C4FEA4616B4BF244F07F561474FEA5B
:10C270008303F6B203F16043B4BF07F80C6087F89C
:10C28000006303F56143012602F01F0206FA02F281
:10C29000C3F880211A60D0F804254B7822F00302FD
:10C2A00003F003031343C0F80435D0F808258B7856
:10C2B00022F0030203F003031343C0F80835D0F85B
:10C2C00010250B7822F00F0203F00F031343C0F880
:10C2D00010350C2303FB05440020267203B0F0BD8B
:10C2E0009A0002F5A0720133875082580192019A98
:10C2F000A7E70820F2E700BF942D002014ED00E02E
:10C30000036801221A600379034A0C2101FB03230D
:10C3100002221A72704700BF942D0020036804495E
:10C3200001221A6103790C2000FB03131A72704773
:10C33000942D00200268110B38B54BB201245B0923
:10C3400001F01F0104FA01F120330B4C44F82310D3
:10C350000546D2F8003200244FF0FF33C2F8004205
:10C36000C2F80833FFF7DAFF2B79044A0C2101FBEE
:10C3700003231C7238BD00BF00E100E0942D0020B3
:10C3800003680122DA60704737B54FF480348C407F
:10C3900000687BB101F150039B000025C550C358D4
:10C3A0000193019BC0F8044301F5A87140F82120D6
:10C3B00003B030BDC0F80843F6E770B4046840F23B
:10C3C0000116D4F800528E4025EA0605C4F8005242
:10C3D000D4F800522B43C4F800329DF80C3070BCE6
:10C3E000FFF7D2BF01F150039B0002689BB200200F
:10C3F000D05082B0D3580193019B4FF480338B40CF
:10C40000C2F8043302B0704702684FF4803303FA75
:10C4100001F1C2F80813704701490248FFF7DCBE7A
:10C42000942D00200080004001490248FFF7D4BE4F
:10C43000A02D00200090004001490248FFF7CCBE2B
:10C44000AC2D002000A000402DE9F843046805460B
:10C4500094F82000FFF7D4FB04F11807FF264FF0F3
:10C46000FF394FF00008207AFF2802D0FFF7C8FB01
:10C470002672607AFF2802D0FFF7C2FB667220683E
:10C48000431C03D0FEF796FFC4F8009084F80B809D
:10C490000C34BC42E7D16868BDE8F843FFF74ABFF7
:10C4A0002DE9F041134DDFF850800E46002401279E
:10C4B00005EB41052B5D5BB12B5D013BDBB22B55E1
:10C4C0002B5D93B958F826301B683046DB699847D6
:10C4D0004CB167B1084B53F8263002215868BDE8CB
:10C4E000F041FFF791BF0124E4E70027F0E7BDE842
:10C4F000F08100BFC72D0020B82D002040680C49F6
:10C5000002798B5CDBB2FF2B0DD0FE2B0DD00068C7
:10C5100003F5A87350F82330064850F822009842DB
:10C5200003D1FF238B54002070470120704700BFC8
:10C53000C42D0020D02D002003682DE9F74F904630
:10C5400093F82120022A05460F4640F099800C24DA
:10C550004C431A195268904509D1DB691BB9002078
:10C5600003B0BDE8F08F426810799847F7E7FFF70E
:10C57000C5FF8346002840F085806B68DFF8109186
:10C580001B79FE2209F803202E6896F82000FFF799
:10C5900091FBCA46B8F1000F1FD13444607AFFF70F
:10C5A00089FB207AFFF76EFB6B681B79FF2209F885
:10C5B00003200C2303FB07662B68C6F80480DB69A5
:10C5C000002BCCD06B681A792F4B03EB420302216E
:10C5D000D9556868FFF706FFC1E7B169884507D3F9
:10C5E00034441FFA81F8207AFFF764FB607AD9E7B8
:10C5F00007EB47094FEA890906EB090368685A689F
:10C60000914238D0002A36D0904534D25B4603217F
:10C61000FFF7BAFE6B6896F820B01B6856F8090061
:10C62000344403F5A6730193A37A0BB3FEF746FFD8
:10C63000024601995846FFF705FB96F82000FFF7E0
:10C6400021FB6B68114A1B790AF8037042F82380BA
:10C650000C2404FB07640023424639466868FFF750
:10C6600093FE207AFFF70EFB607AFFF70BFBA0E743
:10C67000FEF716FFDCE70379FF220AF80320E7E75D
:10C6800008206DE711206BE7C72D0020D02D00207A
:10C69000C42D002003681B8B5A436423B2FBF3F2C2
:10C6A00092B2FFF749BF00002DE9F04F8BB004466E
:10C6B00004928946002900F01F81076897F821300D
:10C6C000002B40F01B81FEF757FB08B1852842D1B3
:10C6D000FEF704FE002835D0894B8A4D1B6803F015
:10C6E000F003303B18BF01232B70FF2387F8203065
:10C6F0004FF6FF7300223B814FF0FF33FA723B602D
:10C70000FA75BB82FB6007F12000FFF745FA05953B
:10C71000F0B909F10803064606934FF00C0B59F8DF
:10C720002620F3B20393531C00F08D80256895F802
:10C730002110A1B108252046FFF786FE28460BB040
:10C74000BDE8F08FFEF790FD0028C5D00325F5E782
:10C750002046FFF779FE0425F0E70126DFE7069B78
:10C7600007920BFB06F813F806A005EB080310462A
:10C77000596083F80AA003238DF82030BAFA8AF3AF
:10C780005B098DF8213008A901238DF82230FEF7CE
:10C79000AFFDB0B9079A45F80820012393404FF048
:10C7A000A042BAF1000F00F09980C2F80C350BFBE3
:10C7B00006F303F1080028440793FFF7EDF9079B00
:10C7C00008B10425B7E703F1090028440793FFF7F0
:10C7D000E3F9079B0028F4D12B440793187AFFF75D
:10C7E00069FA079B587AFFF765FA55F80800BAF11D
:10C7F000000F76D0FEF762FE824655F80800FEF77D
:10C800004FFE62680BFB06551168B30003F5A07379
:10C81000194480465246287AFFF714FA6368687A0A
:10C820001968424601F5A471FFF70CFA0123EB7277
:10C830006368354A1B79039902EB430320460022C3
:10C840009A55FFF779FE002E87D0D9F810200023E3
:10C85000B2F5805F01D3092B4BD1059A127812B142
:10C86000002B08BF01238DF8203000238DF82130E4
:10C870006068264A4FF4E063ADF8223003790993EB
:10C8800008A9FFF7CFFC054600287FF454AF606885
:10C89000D9F810600368D3F810253601D2B2D6401B
:10C8A0004FF00108BE61FFF76BFD04233246022101
:10C8B0006068CDF80080FFF780FD02216068FFF717
:10C8C000A3FD049BFB616368114A1B7987F82180F3
:10C8D00042F823400F4AFF21D1542FE7C2F8083510
:10C8E00065E7FEF7DDFD824655F80800FEF7E6FD38
:10C8F00087E752080133ABE70B251FE708251DE743
:10C90000E80F00F0DC2D0020C72D0020A1C401009D
:10C91000B82D0020C42D00202DE9F0470768DFF86E
:10C920006890002605463C46B0464FF00C0A6B68FE
:10C930001B7909EB430303F80680E37A73B12B6894
:10C9400020680AFB0633997AB1FA81F14909FEF7AA
:10C95000C3FD2068FEF780FDC4F804800C3476B176
:10C960006868084A0379FF21D154FFF709FD686818
:10C97000FFF7C6FC022387F82130BDE8F0870126C7
:10C98000D5E700BFC42D0020C72D00202DE9F047BA
:10C990000646D0E90070FFF7C1FC02217068FFF77E
:10C9A00033FD97F82000FFF785F93C4600254FF04E
:10C9B00001094FF00C0A4FF0A048E37A8BB13368BD
:10C9C00020680AFB053309FA00F29B7A8BB9C8F894
:10C9D0000825FEF753FD207AFFF76CF9607AFFF720
:10C9E00069F90C341DB187F82150BDE8F0870125A5
:10C9F000E3E7C8F80C25ECE738B5046894F8213073
:10CA0000022B054608D1FFF7C1FF2846FFF71CFDA2
:10CA1000002084F8210038BD002BF6D10820FAE769
:10CA2000032813D8012A0BD1012908D100F10E02E5
:10CA3000D2B200EB40000C4B1A5400207047002289
:10CA40000129F6D04BB24BB1022901D00720704723
:10CA5000054B00EB400018444270EEE7024900EB42
:10CA6000400008448270E8E7DD2D002008B501226F
:10CA700002210020FFF7D4FF08B1072810D10722B8
:10CA800002210120FFF7CCFF08B1072808D10021BF
:10CA90000A220846FFF7C4FF10B1072808BF00208C
:10CAA00008BD00000388102B10B502D0112B1ED03A
:10CAB00010BD1A4C2168B1B901220846FFF7B0FF3A
:10CAC00008B1072824D1072202210120FFF7A8FF7F
:10CAD00008B107281CD1042202210020FFF7A0FF83
:10CAE00008B1072814D1236801332360E0E70B4A1B
:10CAF0001368013B1360002BDAD1FFF7B7FF002862
:10CB0000D6D0074B1B68002BD2D0BDE81040184789
:10CB1000034B1B68002BE6D09847E4E7F02D00207C
:10CB2000EC2D002033DF704776DF70477ADF7047E7
:10CB30007CDF70477FDF70478FDF7047B1DF704762
:10CB400070470000014AFE21FDF704B9FCFC01001A
:10CB500008B548B9FFF7E6FF30B1044A40F2871143
:10CB6000BDE80840FDF7F6B808BD00BFFCFC0100B9
:10CB7000024A4FF4B171FDF7EDB800BFFCFC0100B3
:10CB800030B50E4D0E4887B0FDF722FC0FCD01AC3D
:10CB90000FC42B680B4A0C48236001A9FFF784FDE2
:10CBA0000948094CFFF7B8FE322200212046FFF762
:10CBB00071FD1128F8D007B030BD00BF2CFC01007A
:10CBC00014300020C5D30100C0FC01001FB51D4A70
:10CBD0001D480023CDE9022302A91C4AFFF722FBCE
:10CBE00020B11B4A40F21931FDF7B4F8194BD3F8C4
:10CBF000102500214FF40C70D2B220FA02F20091FD
:10CC000001231148FFF7D9FB0F48FFF779FBFFF726
:10CC1000C7F904461048FEF7BFFF20B10C4A40F2A6
:10CC20002B31FDF797F80C4B0C4918782246FFF78B
:10CC300009F820B1064A4FF44C71FDF78BF804B0A7
:10CC400010BD00BF00000302D0FC010041CB010079
:10CC5000FCFC010000900040E02F002040910040CB
:10CC600008B5064B1878FFF70DF830B1044A40F2CA
:10CC70003731BDE80840FDF76DB808BDE02F002052
:10CC8000FCFC01000388212B13B54CD020D8112BBC
:10CC900031D0132B56D0102B18D13E4B81883E48F3
:10CCA000198001F019FE20B13C4A40F2B111FDF7A4
:10CCB00051F83B4B3B483C4901221A703B4BC01A90
:10CCC000C008000440F00300FCF7A4FE02B010BD51
:10CCD000522B44D0562B4FD03B2BF7D113218088B9
:10CCE000FFF722FF2E4B00221A700028EED02B4AAD
:10CCF00040F2E71123E02D4B2A4CE41A037AE408B2
:10CD00002404082B44F0030403D129492046FCF7EE
:10CD100081FE204B27494FF6FF721A80204B0022DC
:10CD20001A702046D0E7002301A98088ADF80430AE
:10CD3000FFF702FF0028C9D0184A40F2CF11FDF7D3
:10CD400009F8C3E7134800231A4685210088FFF736
:10CD5000F1FE0028BAD0114A4FF4EC71EFE70D480C
:10CD600000231A4619460088FFF7E8FE0028ADD0D8
:10CD70000A4A4FF4EF71E2E713218088FFF7D4FEEF
:10CD8000074B00221A700028A0D0044A4FF4F87113
:10CD9000D5E700BF1E25002008300020FCFC010064
:10CDA000FC2D002068F4010058FC010030F4010063
:10CDB0006AFC01007EFC0100024B800143F001038C
:10CDC000184700BF94FC01007FB5304B30481B78FA
:10CDD0000221002B08BF02224FF0000318BF0422DB
:10CDE000ADF808102B4901938DF80A308DF80B200F
:10CDF0008DF80C30FFF738F820B1274A40F219417E
:10CE0000FCF7A8FF254D2A78AAB101A90020FFF759
:10CE10006DF820B1204A40F22B41FCF79BFF0B211B
:10CE20001F48FFF7CBF820B11B4A40F22E41FCF718
:10CE300091FF04B070BD1B4C1B4B1C4EE41AE40860
:10CE4000240444F00304FFF70DF990B901232B707B
:10CE5000174DFFF721F90028D7D029462046FCF7C7
:10CE6000D9FDFCF76DFC0028FBD10A20FFF7A4FFD9
:10CE7000EFE731462046FCF7CDFDFCF761FC0028CA
:10CE8000FBD10A20FFF798FFDDE700BFFD2D002052
:10CE90008FFC0100E1D00100FCFC0100FE2D002010
:10CEA000B42F002068F4010030F40100DDFD010022
:10CEB00001FE010010B504464FF47A70FFF77CFFC5
:10CEC000013CF9D110BD632970B519D90A25642632
:10CED000B1FBF5F4B1FBF6F305FB141406FB1313D9
:10CEE0001B1BB3FBF5F3DAB205FB0242891A3033A0
:10CEF000B1FBF6F13034303101704370847070BD95
:10CF000009290CD90A22B1FBF2F302FB1313C91A47
:10CF10003033B1FBF2F1303101704370EFE7303163
:10CF20000170ECE7164B984219DC164B984218DC5E
:10CF3000154B984217DC154B984216DC144B98425F
:10CF400015DC42F20F73984213DCB0F57A7F12DAE7
:10CF5000632812DC0A28B4BF0120022070470A208F
:10CF60007047092070470820704707207047062047
:10CF7000704705207047042070470320704700BFAA
:10CF8000FFC99A3BFFE0F5057F9698003F420F00EE
:10CF90009F86010008B5037863B9074B3B211888C9
:10CFA000FFF7C2FD30B1054A40F25711BDE8084015
:10CFB000FCF7D0BE08BD00BF1E250020FCFC010010
:10CFC00008B51C4B4A881B889A4231D10A8840F622
:10CFD00077239A422CD18B88174A1848033B138039
:10CFE0000021174AFDF79CF920B1164A40F275411D
:10CFF000FCF7B0FE00224FF400411348FDF7A2F900
:10D0000020B1104A40F27941FCF7A4FE0F48104BC2
:10D010001049C01AC008000440F00300FCF7FAFCF5
:10D02000FCF78EFB0028FBD1BDE80840FDF750BEA1
:10D0300008BD00BF1E2500201C250020D8FC0100D3
:10D0400081CB0100FCFC01001430002068F40100D9
:10D0500030F401009AFC01002DE9F8431E4F1F4CEB
:10D06000D7F800900E468046494630461546FFF7F1
:10D070002AFF2068FFF756FF02464846FFF752FF97
:10D080001044023080B2288002F046F881462068C1
:10D09000FFF748FF41460246484602F0DBF82068A9
:10D0A000FFF740FF013009EB00083868FFF73AFF4F
:10D0B00031460246404602F0CDF82068FFF732FFC5
:10D0C0002C2309F800302B884B440A2203F8012C4A
:10D0D0004846BDE8F88300BFF82D0020F42D00205D
:10D0E00030B5037887B00446002B34D10B2140685B
:10D0F000FEF764FF20B1634A4FF47571FCF72AFE16
:10D100006368002403F1140133F9022F002AA8BF39
:10D11000A4188B42F8D15C4A5C4910780A23154662
:10D12000B4FBF3F3C8B90B60594801231370FFF740
:10D1300001F9584B1878FEF763FDFFF71BF8FEF76F
:10D14000ABFF0028FBD1FFF73FFEFFF73FFDFFF7E6
:10D1500087FDFDF7BDFD07B030BD4F4A096813607C
:10D1600063294FF00003ADF810308DF81230ADF8A0
:10D1700014308DF81630ADF80830ADF80C308DF85D
:10D1800000308DF804305BD904A8FFF79CFEB4F59D
:10D190007A7F0DF10E024ED305A904A8FFF75CFFBC
:10D1A0003E4B014604461B883D480DF10E0201F03E
:10D1B00005FD002320462B703A4C01F0F7FF3A4B57
:10D1C0003A49E41AE408240444F003042046FCF736
:10D1D00021FCFCF7B5FA05460028FAD12C48FFF7E8
:10D1E000A9F82C4B1878FEF70BFDFEF7C3FFFEF7EE
:10D1F000DFF92F48FFF700FC2A464FF400412D4885
:10D20000FDF7A0F820B11F4A40F25141FCF7A2FD02
:10D21000FDF75EFD28492046FCF7FCFBFCF790FA81
:10D220000028FBD125492046FCF7F4FBFCF788FADF
:10D230000028FBD18FE7632C8CBF03A901A9ACE7C1
:10D2400009290FD902A8FFF73EFEB4F57A7F0DF148
:10D250000E0202D305A902A8A0E7632C8CBF03A984
:10D2600001A9F8E76846FFF72EFEB4F57A7F0DF1C5
:10D270000E0202D305A9684690E7632C8CBF03A970
:10D2800001A9F8E7FCFC0100FD2D0020F42D002091
:10D29000D0FC0100E02F0020F82D00201E250020EA
:10D2A0002025002068F4010030F401008AFD01000F
:10D2B000C0FC0100143000209FFD0100CDFD0100E5
:10D2C0000378F7B58BBB1A4C1A4D20782844FDF72C
:10D2D00047F923780133DBB21D44237015F8012C84
:10D2E0000A2A05D00D2A03D0134A12889A421CD864
:10D2F000012B18D9114D0F4E114F2378ADF8063080
:10D300000DF106022B883146384601F057FC0828FB
:10D3100009D01328F1D0052805D020B1094A40F2E0
:10D320003B21FCF717FD0023237003B0F0BD00BFC5
:10D33000F82E0020042E00201C2500201E25002091
:10D3400020250020FCFC01002DE9F8430578064665
:10D350006DBB184C184BDFF86480DFF86490E41A5A
:10D36000E408240444F00104B28A95420AD33369E4
:10D37000134413F8013C0D2B19D10A20FDF712F9C3
:10D380001128F9E73369585DFDF70CF9074660B1DC
:10D390001128F7D0024641462046FCF73FFB4A469B
:10D3A0004FF48F713846FCF7D5FC0135DCE7BDE85A
:10D3B000F88300BF68F4010030F4010045FD01006E
:10D3C000FCFC010007B540F61600FFF7F5FC002352
:10D3D000ADF804308DF80630FDF780FF08B9FDF791
:10D3E00043FF01A90820FDF783FF0820FEF714F88A
:10D3F0004FF47A70FFF7E0FCFFF7E6FCFFF7E6FB7F
:10D40000FFF72EFCFDF764FC03B05DF804FB0000A1
:10D4100008B50B490B4801F07EF920B10A4A40F2E9
:10D420008B41FCF797FCF721064801F083F930B1F6
:10D43000054A40F28F41BDE80840FCF78BBC08BDAF
:10D44000C1CF0100CC2F0020FCFC010007B5FDF787
:10D4500045FF08B9FDF708FF002301A90F20ADF82B
:10D4600004308DF80630FDF743FF0F20FDF7E4FF91
:10D4700003B05DF804FB0F20FDF79CBF10B5244BF3
:10D48000244C2549E41AE408240444F0030420460B
:10D49000FCF7C0FAFCF754F90028FBD1FDF71EFF9A
:10D4A00040B9FDF7E1FEC0B220B11C4A40F2B541DF
:10D4B000FCF750FC1A492046FCF7ACFAFCF740F99F
:10D4C0000028FBD16420FFF7F5FCFFF7BFFF6420C5
:10D4D000FFF7F0FCFFF7CFFF11492046FCF79AFA5F
:10D4E000FCF72EF90028FBD16420FFF7E3FCFFF7DF
:10D4F000ADFF6420FFF7DEFCFFF7BDFF0F20FDF757
:10D5000093FF4FF47A70BDE81040FFF7D3BC00BF23
:10D5100030F4010068F4010070FD0100FCFC010022
:10D520007CFD010000B5964D0FCDB1B005AC0FC428
:10D5300095E80300934B944A01934FF4807384E879
:10D540000300CDE903230293904A072301A905A80C
:10D55000FCF7A8FF20B18E4A40F26E21FCF7FAFBDF
:10D560004FF400410020FCF791F820B1884A40F2C6
:10D57000AB21FCF7EFFBFBF7BFFFFFF77FFFFDF7EA
:10D58000ADFE08B9FDF770FE4FF0A0430422C3F8CA
:10D5900040274FF44032C3F84027FCF791FE7D4A04
:10D5A000106018B17A4AD221FCF7D4FBFDF77AFB60
:10D5B00020B1774A40F2B721FCF7CCFB01F080FBA9
:10D5C00020B1734A40F20321FCF7C4FB002305A9F4
:10D5D0000120059301F008FC20B16D4A40F20921B9
:10D5E000FCF7B8FB05A801F0CBFC20B1684A40F27B
:10D5F0000D21FCF7AFFB112367488DF8043001F0D3
:10D60000A7FE654982B201A8FFF792FA18B1604AF5
:10D61000E721FCF79FFB0021082205A801F043FE4B
:10D620005E494FF0C87305A8CDE90513FFF77EFAF0
:10D6300018B1574AF121FCF78DFBFFF7E9FE584B73
:10D640005848059305A901F035F920B1504A4FF427
:10D650009C71FCF77FFB042200210DEB020001F01E
:10D6600022FE514B5148019301A901F031FA20B13A
:10D67000474A4FF4A071FCF76DFBAC22002105A8CE
:10D6800001F011FE02238DF814304FF4A063484AD4
:10D69000ADF816300123ADF8603019928DF8903056
:10D6A000402244F25063CDE9272305A9414B42486B
:10D6B0002E9300F0CDFB20B1354A4FF42871FCF7D2
:10D6C00049FB01213C4800F0C0FB1C22002105A8B9
:10D6D00001F0E9FD00234FF42032CDE90532ADF829
:10D6E00022304FF470228DF82430344B07920A9385
:10D6F0000322334B8DF8202005A80B9300F050FE39
:10D7000020B1234A40F27911FCF724FB03212A4877
:10D7100000F010FC20B11E4A4FF43371FCF71AFBE5
:10D72000284C294B294EE41AE408240444F003044D
:10D730004FF0A045FDF7D2FD08B9FDF795FDD5F8EE
:10D740001035DB0317D4FFF781FEC820FFF7B2FBCB
:10D75000FFF791FE4FF47A70FFF7ACFB314620469D
:10D76000FCF758F9FBF7ECFF0028FBD14FF08043A2
:10D770000122C3F80025FBF7E3FFFDF7A9FAD9E77B
:10D7800040FC01003430002034310020C1D20100BF
:10D79000FCFC0100002E0020DCFC010010003C001D
:10D7A00045CB01000830002049D30100202500208E
:10D7B0001825002051CB0100FC2E002095CF010040
:10D7C00071CB010068F4010030F40100EBFC0100B2
:10D7D0000369C1688B429DBF8268D21802F1FF3293
:10D7E00003F1FF3394BF501A581A70472DE9F041E6
:10D7F000D0E9027405463E1B4068964220448846A4
:10D80000144404D901F026FDEC60BDE8F0813246F5
:10D81000E41B01F01FFD224608EB06016868F1E7F2
:10D820002DE9F843C5680646894617464FF00008BB
:10D830003469B3687068A54228BFE418013C621BD4
:10D840005C1BBC4228BF3C46944228BF1446494654
:10D850002844224601F0FEFCB3682544AB4208BFD1
:10D8600000253F1BA044A144F560E1D14046BDE83E
:10D87000F883000010B5114C114AA2610223C4E9DB
:10D880000433104BE361A2644FF400730E4A236229
:10D89000E264002310220D49A362E01D6362E3628B
:10D8A000A3656365E365226501F030FD0849204604
:10D8B00001F02CFD2023A37110BD00BF34320020E5
:10D8C0001EFE0100BC320020AC32002027FE010009
:10D8D0002BFE0100F8B5184C182300FB033503FBA1
:10D8E00000402544C46A012C0F46164611D024B1CD
:10D8F000022C1BD000242046F8BD2846FFF768FF05
:10D90000B042F8D3324639462846FFF76FFF344617
:10D91000F1E72846FFF75CFF8642344628BF0446FD
:10D92000224639462846FFF761FFE4E72846BDE86E
:10D93000F840FFF775BF00BF34320020FFF79ABFF1
:10D940006DDF704779DF70477DDF704764DF7047B8
:10D950002DE9F74F0C9CBDF834B027880025804690
:10D960008A4691462E46B8F80020B2420BDC35B10B
:10D970002288013AD21B92B2FF2A39D8DA55002008
:10D9800003B0BDE8F08FD8F8042052F826000190CB
:10D9900000220DF1030101A8FFF7D8FF0028EFD105
:10D9A0009DF803204A4521D12288002D14BF002074
:10D9B000022002EB09010144594519DC3DB901324D
:10D9C00092B2228003F802A02288013222802288AB
:10D9D0000DF103011A4401A8FFF7B8FF0028CFD1C9
:10D9E00021889DF803200A44228001250136BAE7E8
:10D9F0000C20C5E72DE9F341089CBDF824501746DB
:10DA0000CDE9004502220646FFF7A2FF48B91022E1
:10DA100039463046CDE9084502B0BDE8F041FFF790
:10DA200097BF02B0BDE8F0812DE9F04F00231688C2
:10DA3000138090F82D3085B007460D46144653B339
:10DA4000082E01D80C2028E102A8FFF779FF002852
:10DA500040F0238113880822CA54238801339BB2E3
:10DA60001B222380CA542088013080B220800622E5
:10DA70000DF10901284401F0EDFB23889DF80820F1
:10DA800006339BB212F0FE0218BF01222380EA5433
:10DA9000238801332380BB78FBB123880433B3424E
:10DAA000D0D802A8FFF74EFF002840F0F680238868
:10DAB0000322EA54238801339BB219222380EA54BB
:10DAC0002388BDF8082001339BB2E9182380EA546B
:10DAD000120A4A70238802332380FA789AB1238885
:10DAE000D91CB142AED80221E954238801339BB23C
:10DAF00001212380E95423880B449BB22380EA54FC
:10DB000023880B4423807A68AAB12388D91CB142A8
:10DB100098D8022192F90020E954238801339BB25E
:10DB20000A212380E954238801339BB22380EA54DD
:10DB30002388013323803B89002B40F0A2803B8A5D
:10DB40005BB1CDE900462B460722032107F1100007
:10DB5000FFF750FF002840F0A0803B8B5BB1CDE980
:10DB600000462B461522142107F11800FFF742FF4B
:10DB7000002840F092803A6A002A40F09180D7F85D
:10DB80002480B8F1000F30D0B8F804302188981CF8
:10DB90008A1C0244B2423FF655AFFE283FF652AF10
:10DBA00003336B54238801339BB2FF222380EA5452
:10DBB000238801339BB22380B8F80020EA54E91887
:10DBC000120A4A702088023080B22080B8F80420FF
:10DBD0005AB1D8F8081000296CD0284401F03AFB5B
:10DBE0002388B8F804201344238097F82C30002BA6
:10DBF00040F09B80387800284FD03B88012B59D0CB
:10DC0000228802F1020CB4453FF61CAF012805D171
:10DC10007B78023313449E42FFF414AF023EB61ADF
:10DC2000B6B202A905EB0C00ADF80860FFF78CFE58
:10DC300098BB3978BDF80820022900F0BB807B78BA
:10DC4000934202D3B24240F2B380012940F0B48043
:10DC50009BB29E42C0F0B080ADF808300821BDF8FC
:10DC60000830FE2B3FF6EEAE22880133AB542288FB
:10DC7000013292B22280A9542288134423800020CA
:10DC80000BE0CDE900462B460622022107F10800F1
:10DC9000FFF7B0FE00283FF452AF05B0BDE8F08FAB
:10DCA000B4F800C00CF10603B3423FF6CBAE1188C6
:10DCB000052901D80720F0E76FF4486E01EB0E0349
:10DCC0009BB24FF27D3E7345F4D95388052BF1D9B1
:10DCD0006FF44860181880B27045EBD94FF6FF70AA
:10DCE000814203D0834201D09942E3D8052305F84D
:10DCF0000C30238801339BB212212380E9542388FE
:10DD000001339BB223801188E954E818090A417055
:10DD1000238802339BB223805288EA54E918120AFE
:10DD20004A7023880233238029E7BB6A002BC1D0C5
:10DD30004FF000094FF00C0A4FF0160B97F82C30FB
:10DD40005FFA89F293427FF655AFB96A0AFB02F295
:10DD500001EB0208B8F80430981CFE283FF672AEBA
:10DD6000208803332B54238801339BB2238005F88A
:10DD700003B0238801339BB223808A5AEA54E918FE
:10DD8000120A4A702088023080B22080B8F804203D
:10DD90005AB1D8F8081000298CD0284401F05AFA5A
:10DDA0002388B8F804201344238009F10109C5E74A
:10DDB000092154E7B242FBD9ADF808604EE770B5CF
:10DDC000C0B14AB116880024B44203D305196D7856
:10DDD0009D4208D0A14201D800200BE0055D01352D
:10DDE0002C44A4B2F0E7A142F6D9A31C1380005D35
:10DDF000013880B270BD13B50023ADF8063013466C
:10DE00000DF106020446FFF7DAFF10B1BDF8060077
:10DE1000204402B010BD72DF704773DF704738B521
:10DE2000012204460D46B0F89810D0F89400FFF790
:10DE3000E2FF00B1057004F13C0204F1940104F129
:10DE40005400BDE83840FFF7E6BF80F83010704757
:10DE5000F8B504460F46002968D0002866D091F82E
:10DE60007A301BB191F89830002B61D1D7F8A030EF
:10DE7000042B5DD0D7F89C30042B59D007F17806DD
:10DE80000FCE4FF0000C251D84F802C00FC50FCE39
:10DE90000FC596E8070085E8070084F830C0D7F87A
:10DEA000A4306363D7F8A830A3634FF6FF7504F17D
:10DEB0009403C4F8A430A4F8A8500722614604F1E2
:10DEC000AA0001F0F0F923780BB984F854502246E7
:10DED00004F155011F25C4F89410384622F8985FC4
:10DEE000FFF7A2FD08BB224604F17401C4F89C10A0
:10DEF00007F13C0022F8A05FFFF796FDA8B9A369DF
:10DF0000A4F848304FF480720123A4F850206269CD
:10DF100020646264014684F83C3004F13C0204F160
:10DF20005400FFF778FF00B92370F8BD0E20FCE71E
:10DF30000720FAE7F8B5077804460D46002F00F0F1
:10DF4000F98000F1AA06A17007220021304601F0F5
:10DF5000AAF9E38813B1A378012B04D0E3794BB17C
:10DF6000A378022B06D1636BA3B1012284F8B12000
:10DF700008209847334604F1B00113F8012F12B975
:10DF80008B42FAD117466B1E032B52D8DFE803F001
:10DF9000050B0F1284F8B130ECE7A3791BB194F8AC
:10DFA000243003B95FB9E3790BB1002F43D1237A51
:10DFB000002B42D1637A002B0CBF00250425636B34
:10DFC000A570002B3BD0033D012D38D86279002A83
:10DFD00035D094F8B22092BB84F8B420012284F8A2
:10DFE000B3200720984704F13C0518220021284659
:10DFF00001F059F9E36A591E0122022928BF13468C
:10E0000084F8513094F8243084F83C2033B19142A4
:10E0100096BFA36A84F8522084F85230A278002375
:10E0200084F85030042A1BD8DFE802F06C0D22324D
:10E0300052000025C3E70225C1E70325BFE70023FF
:10E0400084F8B330CFE7C4F8A430C4E910630223E6
:10E05000012284F83C30802384F83120A4F8483031
:10E06000A378002B51D1636B002B5FD100205CE0C3
:10E07000022384F83130032384F83C302369A4F868
:10E0800048300023C4F8A430E36826646364E7E7FB
:10E0900063696364A369A4F848306379B3B194F801
:10E0A000B2309BB994F8B43083B1022384F8503075
:10E0B00004212046FFF7B3FE0028D1D1052384F8C0
:10E0C000313004F19403C4F8A430C9E70323F6E720
:10E0D000E3696364236AA4F84830637983B194F8F0
:10E0E000B2306BB994F8B43053B1022384F8503095
:10E0F00004212046FFF793FE0028B1D10623DEE776
:10E100000423DCE784F83130AAE72A46D4F8A410C7
:10E1100004F15400FFF77FFE38B994F8301094F8FA
:10E120005400FFF77AFE00289DD0F8BD94F8310026
:10E1300098479BE70820F8E70388112B10B50C4699
:10E140000AD0262B1FD0102B05D1C37B012B02D167
:10E150008388A1F8A83010BD0022838881F8B220FE
:10E16000B1F8A8209A42F6D10B79002BF3D1012106
:10E170002046FFF7DFFE0028EDD0A36B002BEAD08E
:10E18000BDE810401847037A013B012BE3D889789A
:10E1900005230131B1FBF3F303EB8303C91AC9B2C1
:10E1A000E6E7704775DF704776DF70477ADF7047C4
:10E1B0007BDF7047034B1A8882420CBF1846002051
:10E1C000704700BFD8340020024B9B6903B1184749
:10E1D000704700BFBC34002037B585B22846FFF732
:10E1E000E9FF034670B1164C017A227B91420BD2B3
:10E1F00000F10A012846FFF7D5FFE8B1112801D048
:10E20000FFF7E2FF03B030BD237C0022027243B16E
:10E210003B212846FFF7C8FF30F0080301D0FFF785
:10E22000D3FF6369002BEDD000228DF80420ADF8F8
:10E23000065001A89847E5E71A7A01321A72E1E719
:10E24000BC34002013B50B46497A0F4C024669B91D
:10E25000D4E901101C7A002C18BF01465868FCF75D
:10E2600071F808B1FFF7B0FF02B010BD00211972BC
:10E270006369002BF8D00121ADF806008DF8041079
:10E2800001A89847F0E700BFBC3400204B88028803
:10E290009A4213D842889A4210D380888A8840F2E2
:10E2A000F313984294BF031AC31A934206D800F29C
:10E2B000F310904234BF00200120704700207047C7
:10E2C0000388112B70B5014648D002D8102B1ED000
:10E2D00070BD122B52D0502BFAD12F4BC288DB8944
:10E2E0009A42F5D1038A022BF2D186883046FFF795
:10E2F00061FF05460028EBD001F1120000F05FF944
:10E3000030BB6868FCF764F80028E1D009E0C37B03
:10E31000012BDDD14FF6FF70FFF74CFF054620B90A
:10E320000420BDE87040FFF74FBF1C4A8E8806806E
:10E33000002303721368C5F80A300A30536843603B
:10E340001031FFF7A3FF144B6872DB89002BBFD19C
:10E3500029463046BDE87040FFF774BF8088FFF75C
:10E3600029FF04460028B3D04068FCF731F808B113
:10E37000FFF72AFF4FF6FF732380A9E78688304610
:10E38000FFF718FF05460028A2D008310A30FFF732
:10E390007DFF6872DCE700BFBC340020EC34002055
:10E3A000F8B5064648B305460FCD154F3C460FC499
:10E3B00095E8070084E807003068124B3B60B0B175
:10E3C000FFF7F4FEC0B931680A681A604A685A60FB
:10E3D0000D480E4A4FF6FF7303800D4B40F8043F83
:10E3E0000021FBF79DFF002818BF032004E018461A
:10E3F000FFF7DEFE0028EBD0F8BD0E20FCE700BFE3
:10E40000BC340020EC340020D8340020D9E10100D5
:10E41000F434002073B50191019C06466CB10025CF
:10E420002C46294601A8FCF72AF918B106EB44034B
:10E4300001349D800135142DF3D13046346002B093
:10E4400070BD00002DE9F04703888488112B8CB043
:10E4500006463ED01A2B41D0102B19D1284DAB685F
:10E46000DB43009369686846FCF732F9009901A81C
:10E47000FFF7D0FF0DF108094FF00008019B984508
:10E4800009D3132C15D91F4AE3210420FBF762FCA2
:10E490000CB0BDE8F08739F802AB002701375146D0
:10E4A00005EB8700FCF7E1F81D2FF7D108F1010813
:10E4B000E4E721461448FCF7CFF821461348FCF75F
:10E4C000CBF8F37B012BE3D011482146FCF7C4F8CD
:10E4D000DEE70D482146FCF7C8F8D9E7057A0D4874
:10E4E0002D09012D214606D9FCF7B6F8022D21464B
:10E4F0000948F0D0EAE7FCF7B8F821460648EAE711
:10E500001435002032FE01001C3500201835002093
:10E51000203500202435002028350020132801460E
:10E5200002D80248FCF7ABB800207047183500202D
:10E5300010B50446FFF7F2FF002814BF2046142050
:10E5400010BD70B5054616460AB90E2070BD0023F1
:10E5500013600028F9D00368002BF6D0C38813F0AD
:10E5600003040FD10846FFF7E3FFC0B214280BD015
:10E570002B7983420AD9EB882A6800FB0323336096
:10E580002046E3E70720E1E70520DFE70420DDE799
:10E59000AADF7047002301380B70042806D8DFE893
:10E5A00000F00306080A0C0011230B7070472123AA
:10E5B000FBE73123F9E71223F7E72223F5E7007899
:10E5C00000F001007047F0B58B7891B0002B0C463D
:10E5D00008BF01238DF80E3005460B88ADF80C30CE
:10E5E000002116466846032200F05DFE6946607C05
:10E5F000FFF7D0FF0DF10101A07CFFF7CBFF9DF8E5
:10E600000230E27B62F3C303227C62F30413227BB9
:10E6100062F30003227D002A14BF0222012262F36A
:10E62000420300211C2209A88DF8023000F03BFEB5
:10E63000637B13F0300F15D002AF03220021384660
:10E6400000F031FE0DF10901E07CFFF7A3FF11237B
:10E650008DF808309DF80A300E97012262F34203CC
:10E660008DF80A30637B8DF824301422A37B8DF85B
:10E670002530002104A800F016FE03AB0493A38804
:10E68000ADF81C30A368CDF814D01BB1E288ADF80A
:10E6900018200893A369002B2ED001AF032200217C
:10E6A000384600F000FEA3691A88ADF82C205A887D
:10E6B000187BADF82E2039465A680A920D97FFF75D
:10E6C00069FFA3690DF10501587BFFF763FFA2699C
:10E6D0009DF80630917A61F3C303D17A61F3041394
:10E6E000117A927B002A61F3000314BF02220122F7
:10E6F00062F342038DF80630E36903B10C933346AD
:10E7000004AA09A92846FFF743FF11B0F0BDA5DF11
:10E710007047B5DF704758B14FF0F7130360FB2324
:10E720000371F723C3801723C16083600020704703
:10E730000E20704730B1A1F11703E02B04D80180FF
:10E74000002070470E2070470720704713B503461E
:10E7500080880C4680B91A88112A60D00ED8102AF9
:10E760003AD0A37A43B1E1880020FFF7D0FF002818
:10E7700072D14FF48073638102B010BD3A2A53D036
:10E78000552AEED1DB88C988A072172B38BF172312
:10E790008B4228BF0B462381FFF7BBFF60B1FCF71C
:10E7A000E1FA354A354B36499B1ADB081B04024611
:10E7B00043F00100FBF732F9E37A002BD1D1E36893
:10E7C000002BCED040F6772200922289ADF80420AB
:10E7D000694620469847C4E7DB7B012B04BF0B88C2
:10E7E000CB80C98823898B42BBD20020FFF78FFFE3
:10E7F00010B90123E372B4E7112802D10123A372F7
:10E80000AFE7FCF7AFFA1C4A1C4B1E499B1ADB080A
:10E810001B04024643F00100FBF700F9A1E7F723D0
:10E82000CB8017238B609CE75B89CA88934228BF03
:10E830001346172BCA6838BF17230B814AB1C97A10
:10E8400039B140F677210091ADF804306946204691
:10E8500090470023638184E711288DD0FCF782FA6A
:10E86000054A064B07499B1ADB081B04024643F086
:10E870000100FBF7D3F87FE730F4010080F40100DA
:10E88000A3FE010072FE0100B0DF704766DF704733
:10E89000034610B500214088FFF7F8FF024608B98B
:10E8A0001A7210BD112801D10122F9E75B68BDE899
:10E8B0001040184760B159B10378DE2B0AD00B68BD
:10E8C0004360DE2303704FF6FF73438000207047E0
:10E8D0000E2070470820704728B10378DE2B04D142
:10E8E0004180002070470E20704708207047F0B527
:10E8F000054685B00C46F1B1E8B10B78DE2B1AD194
:10E9000082884B889A4204D10B7A13B10846FFF7EC
:10E91000BFFF2B88112B32D0512B0ED0012B0AD1E7
:10E920002B7A012B07D1A9886288914203D12372E7
:10E930002046FFF7ADFF05B0F0BDAE886388B34257
:10E94000F9D1AF79022FF6D1AD7B2B1F022BF2D874
:10E9500000211022684600F0A6FC052D14BF4FF4DC
:10E96000C0730023694630468DF80070ADF804305E
:10E97000FFF78AFF0028DED063689847DBE76388EB
:10E98000AA889A4204BF4FF6FF736380D3E7A8DFDB
:10E990007047ADDF7047AEDF704762DF704770B51C
:10E9A00005468AB00C46002962D0002860D0038852
:10E9B000502B37D0572B72D0102B59D181886069DA
:10E9C000002601AA0196FFF7BCFD082231460DEB97
:10E9D000020000F068FC022302AA218AA888CDF870
:10E9E0000CD00293FFF7D5FF002841D1A369002B7B
:10E9F0003ED00398FFF7E3FD002839D0019B0BB10F
:10EA000001221A701822002104A800F04CFC0223F5
:10EA10008DF81030AB88ADF81830019B0594079342
:10EA2000A36923E08188606902AAFFF78AFD1822A2
:10EA3000002104A800F037FCAB88ADF8183021891C
:10EA4000EB88029A05949942079218D12E8A022ED9
:10EA500015D16AB105F11200FFF7B1FD029B48B173
:10EA600001221A708DF81060A3690BB104A89847B1
:10EA70000AB070BD187003238DF81030F4E7A28936
:10EA80009A42F5D1A369002BF2D000228DF8102014
:10EA900005F1120208922A8AADF82420E6E781885F
:10EAA000606902AAFFF74DFD01460028E0D1029BF4
:10EAB0001B78002BDCD0182204A800F0F4FB012303
:10EAC0008DF81030AB88ADF818300594029BA6E79E
:10EAD000F0B5384B8FB002AA04460E4603F1100C75
